:100000000C945C000C9466000C9466000C946600E2
:100010000C9466000C9466000C9466000C946600C8
:100020000C9466000C9466000C9466000C946600B8
:100030000C9466000C9466000C9466000C946600A8
:100040000C9466000C9466000C9466000C94660098
:100050000C9466000C9466000C9466000C94660088
:100060000C9466000C94660000000000230026003B
:10007000290000000000250028002B0004040404CF
:100080000404040402020202020203030303030342
:10009000010204081020408001020408102001021F
:1000A00004081020000000080002010000030407FB
:1000B000000000000000000011241FBECFEFD8E0B8
:1000C000DEBFCDBF0E9491000C94CF000C940000C5
:1000D000833081F028F4813099F08230A1F00895C6
:1000E0008730A9F08830B9F08430D1F48091800055
:1000F0008F7D03C0809180008F778093800008956A
:1001000084B58F7702C084B58F7D84BD08958091BA
:10011000B0008F7703C08091B0008F7D8093B000D6
:100120000895CF93DF93E5EAF0E08491E1E9F0E010
:10013000D491EDE7F0E0C491CC2371F081110E94DD
:100140006800EC2FF0E0EE0FFF1FE859FF4FA5917C
:10015000B491EC91ED23F1F4E6EAF0E08491E2E968
:10016000F0E0D491EEE7F0E0C491CC2399F0811156
:100170000E946800EC2FF0E0EE0FFF1FEE58FF4FDB
:10018000A591B4918FB7F8949C91ED2FE095E92358
:10019000EC938FBF80E090E0DF91CF910895F894C9
:0201A000FFCF8F
:00000001FF
